:1000000012C021C020C01FC01EC01DC01CC01BC00C
:100010001AC019C018C005C116C015C014C013C03D
:1000200012C011C010C011241FBECFE5D4E0DEBF46
:10003000CDBF10E0A0E6B0E001C01D92A536B1072B
:10004000E1F702D089C1DCCFDF93CF93CDB7DEB724
:100050001ED0789485E590E025E530E0F901208117
:100060002068FC01208385E590E025E530E0F9017A
:1000700020812068FC012083889585E590E025E5B6
:1000800030E0F90120812F77FC012083ECCFDF9352
:10009000CF93CDB7DEB70DD081E390E020E8FC012F
:1000A000208384E390E02FE0FC012083CF91DF9157
:1000B0000895DF93CF93CDB7DEB780E490E0FC01E5
:1000C000108289E290E023E3FC0120838AE290E041
:1000D00028E9FC01208380E490E026E8FC012083ED
:1000E000CF91DF910895DF93CF930F92CDB7DEB715
:1000F000898389818A3019F48DE0898301C00000E9
:100100008BE290E0FC018081882F90E080729070FB
:100110000097B1F38CE290E02981FC0120830F90DD
:10012000CF91DF910895DF93CF930F92CDB7DEB7D4
:1001300000008BE290E0FC0180818823D4F78CE200
:1001400090E0FC018081898389810F90CF91DF91BC
:100150000895DF93CF93CDB7DEB780916000909183
:1001600061001816190634F58091600090916100C5
:10017000019790936100809360008091600090915E
:10018000610024E030E0B901C0D090936300809317
:10019000620085E390E0409162005091630021E0AD
:1001A00030E0042E02C0220F331F0A94E2F72F70B2
:1001B000FC012083CF91DF910895DF93CF93CDB7DA
:1001C000DEB78091600090916100883C910534F524
:1001D00080916000909161000196909361008093FE
:1001E0006000809160009091610024E030E0B901EE
:1001F0008CD0909363008093620085E390E04091FF
:1002000062005091630021E030E0042E02C0220F12
:10021000331F0A94E2F72F70FC012083CF91DF9106
:1002200008951F920F920FB60F9211242F933F93B0
:100230004F935F936F937F938F939F93AF93BF93EE
:10024000EF93FF93DF93CF930F92CDB7DEB7F89480
:100250008CE290E0FC01808189838981893619F0E4
:1002600089818934C1F49091640081E08927809369
:10027000640080916400882339F489E634DF85E3E3
:1002800090E0FC01108222C089E42DDF85E390E03C
:10029000FC0110821BC08981823719F08981823567
:1002A00041F480916400882321F053DF83E41BDF55
:1002B0000DC089818C3619F089818C3439F4809194
:1002C0006400882319F079DF83E40DDF82E390E096
:1002D00022E330E0F901308120E82327FC0120836C
:1002E00078940F90CF91DF91FF91EF91BF91AF91F3
:1002F0009F918F917F916F915F914F913F912F913E
:100300000F900FBE0F901F90189597FB092E072690
:100310000AD077FD04D00CD006D000201AF47095D6
:1003200061957F4F0895F6F7909581959F4F0895B9
:10033000AA1BBB1B51E107C0AA1FBB1FA617B7070B
:1003400010F0A61BB70B881F991F5A95A9F7809527
:0C0350009095BC01CD010895F894FFCFFA
:00000001FF
